:020000040800F2
:100000000080012091070008D5070008D5070008E7
:10001000D5070008D5070008D50700080000000034
:10002000000000000000000000000000D5070008EC
:10003000D507000800000000D5070008D507000814
:10004000D5070008D5070008D5070008D507000820
:10005000D5070008D5070008D5070008D507000810
:10006000D5070008D5070008D5070008D507000800
:10007000D5070008D5070008D5070008D5070008F0
:10008000D5070008D5070008D507000800000000C4
:10009000000000000000000000000000D50700087C
:1000A000D5070008D5070008D5070008D5070008C0
:1000B000D5070008D5070008D5070008D5070008B0
:1000C000D5070008D5070008D5070008D5070008A0
:1000D000D5070008D5070008D50700080000000074
:1000E000D5070008D5070008D50700080000000064
:1000F000000000000000000000000000D50700081C
:1001000000000000D5070008D5070008D507000843
:1001100000000000000000000000000000000000DF
:10012000D5070008D5070008D5070008D50700083F
:10013000D5070008000000000000000000000000DB
:10014000000000000000000000000000D5070008CB
:10015000D5070008D5070008D5070008D50700080F
:10016000D5070008D50700080000000000000000C7
:10017000000000000000000000000000000000007F
:1001800000000000D507000800000000000000008B
:04019000D507000887
:100194000348044B834202D0034B03B11847704712
:1001A4004800002048000020000000000548064BDD
:1001B4001B1AD90F01EBA301491002D0034B03B161
:1001C4001847704748000020480000200000000045
:1001D40010B5064C237843B9FFF7DAFF044B13B18B
:1001E4000448AFF300800123237010BD48000020B1
:1001F400000000002008000808B5054B1BB10549A4
:100204000548AFF30080BDE80840FFF7CFBF00BF4B
:10021400000000004C0000202008000880B582B0D7
:1002240000AF0023FB711CE0FB79124A12F81300A3
:10023400FB79104A5B00134459780023012200F033
:1002440085F8FB790B4A12F81300FB79094A5B0025
:1002540013445B780022194600F0DEF8FB79013381
:10026400FB71FB79062BDFD900BF00BF0837BD4601
:1002740080BD00BF0C00002080B584B000AF0346F1
:10028400FB71FB79092B21D8FB79124AD35CBB7330
:100294000023FB7316E0FB7B0F4A12F81300FB7B71
:1002A4000D4A5B0013445978BA7BFB7B42FA03F393
:1002B400DBB203F00103DBB21A4600F0ADF8FB7BBE
:1002C4000133FB73FB7B062BE5D900E000BF10373D
:1002D400BD4680BD000000200C00002080B487B023
:1002E40000AF78604FF47A63FB6000237B610DE01C
:1002F40000233B6103E000BF3B6901333B613A6982
:10030400FB689A42F7D37B6901337B617A697B6826
:100314009A42EDD300BF00BF1C37BD4680BC704776
:1003240080B485B000AF03463960FB71FB79413B73
:10033400FB73FB7B044A52F823203B6813441846A2
:100344001437BD4680BC70471C00002090B587B0B0
:1003540000AF0446084611461A462346FB7103467D
:10036400BB710B467B7113463B71FB790021184628
:10037400FFF7D6FF7861FB790C211846FFF7D0FF11
:100384003861FB7904211846FFF7CAFFF8607B69DE
:100394001B68BA795200032101FA02F2D2431A40CF
:1003A4007B691A607B691B687979BA79520001FA12
:1003B40002F21A437B691A607B79002B15D13B69E1
:1003C4001B68BA795200032101FA02F2D2431A409F
:1003D4003B691A603B691B683979BA79520001FAA2
:1003E40002F21A433B691A6012E0FB681A68BB798F
:1003F400012101FA03F3DB431A40FB681A60FB682E
:100404001B683979BA7901FA02F21A43FB681A6057
:1004140000BF1C37BD4690BD80B586B000AF034613
:10042400FB710B46BB7113467B71FB7900211846A7
:10043400FFF776FF7861FB7914211846FFF770FF08
:1004440038617B691A68BB795B0022FA03F3DBB27B
:1004540003F00303FB73FB7B002B01D1012313E0A7
:100464003B691A68BB79012101FA03F3DB431A40A3
:100474003B691A603B691B687979BA7901FA02F21F
:100484001A433B691A60002318461837BD4680BDDD
:1004940080B584B000AF03460A46FB711346BB71B6
:1004A400FB7910211846FFF73BFFF860FB681A68D8
:1004B400BB7922FA03F3DBB203F00103DBB2184683
:1004C4001037BD4680BD000080B582B000AF002368
:1004D400FB710FE0FB791D4A12F81300FB791B4AEC
:1004E4005B001344597801230022FFF72FFFFB79A7
:1004F4000133FB71FB79022BECD90023BB711CE0A7
:10050400BB79134A12F81300BB79114A5B001344F8
:10051400597800230122FFF719FFBB790C4A12F81E
:100524001300BB790A4A5B0013445B780122194625
:10053400FFF772FFBB790133BB71BB79032BDFD9A2
:1005440000BF00BF0837BD4680BD00BF3400002097
:100554002C00002080B582B000AF0023FB7170E056
:10056400FB793C4A12F81300FB793A4A5B001344C6
:100574005B7800221946FFF74FFF0023BB714DE063
:10058400BB79354A12F81320BB7933495B000B441D
:100594005B7819461046FFF77BFF03461A462F4B3C
:1005A4001A702E4B1B78002B35D13220FFF796FEA4
:1005B400BB79294A12F81320BB7927495B000B4405
:1005C4005B7819461046FFF763FF03461A46234B30
:1005D4001A70224B1B78002B1DD1FA79B979204867
:1005E40013465B00134403440B441A781D4B1A70E2
:1005F40000F0A2F800BFBB79174A12F81320BB79A8
:1006040015495B000B445B7819461046FFF740FF21
:100614000346002BEFD0BB790133BB71BB79022BAE
:10062400AED9FB790B4A12F81300FB79094A5B0037
:1006340013445B7801221946FFF7EEFEFB79013380
:10064400FB71FB79032B8BD900BF00BF0837BD4674
:1006540080BD00BF2C000020340000206500002075
:100664003C0000206400002080B400AF024B1B78E3
:100674001846BD4680BC70476400002080B400AFBB
:10068400044B1B68034A43F00103136000BFBD46DB
:1006940080BC70470038024080B485B000AF034688
:1006A400FB71FB795B09FB73FB7903F01F03BB73DD
:1006B400FB7B032B32D801A252F823F0D1060008A9
:1006C400E5060008F90600080D070008164B1A682D
:1006D400BB7B012101FA03F3134913430B601EE0B2
:1006E400124B1A68BB7B012101FA03F30F49134330
:1006F4000B6014E00E4B1A68BB7B012101FA03F373
:100704000B4913430B600AE00A4B1A68BB7B0121B7
:1007140001FA03F3074913430B6000E000BF00BF75
:100724001437BD4680BC704730380240343802402C
:10073400403802404438024080B500AFFFF794FFD0
:1007440003461A46044B1A70034B1B781846FFF7EE
:1007540093FD00BF80BD00BF6600002080B500AFE0
:10076400FFF78CFF0020FFF797FF0120FFF794FFAE
:100774000220FFF791FFFFF7A7FEFFF74FFDFFF7FA
:10078400E9FE0A20FFF7AAFD00BFF8E700200B49A5
:100794000B4A0C4B02E01C580C5004300C189442C9
:1007A400F9D300200849094A01E008600431914264
:1007B400FBD300F00FF8FFF7D1FF0000000000208A
:1007C400480000204008000848000020680000207D
:1007D400FEE7000070B50D4B0D4D5B1B9C10002611
:1007E400A64209D100F01AF80A4D0B4B5B1B9C1072
:1007F4000026A64205D170BD55F8043B9847013642
:10080400EEE755F8043B98470136F2E7380800084C
:1008140038080008380800083C080008F8B500BF8C
:10082400F8BC08BC9E467047F8B500BFF8BC08BCCD
:040834009E46704725
:04083800FD010008B6
:04083C00D5010008DA
:100840003F065B4F666D7D077F6F00004102410BE5
:10085000420443064302410C4104000000000240F0
:100860000004024000080240000C02404109420618
:10087000420043074100410A42090000010203040B
:0808800005060708090000004D
:040000050800079157
:00000001FF
