:020000040800F2
:100000000080012065110008A9110008A91100084D
:10001000A9110008A9110008A9110008000000009A
:10002000000000000000000000000000A91100080E
:10003000A911000800000000A9110008A91100087A
:10004000A9110008A9110008A9110008A9110008A8
:10005000A9110008A9110008A9110008A911000898
:10006000A9110008A91100081D0D0008A911000818
:10007000A9110008A9110008A9110008A911000878
:10008000A9110008A9110008A9110008000000002A
:10009000000000000000000000000000A91100089E
:1000A000A9110008A9110008A9110008A911000848
:1000B000A9110008A9110008A9110008A911000838
:1000C000A9110008A9110008A9110008A911000828
:1000D000A9110008A9110008A911000800000000DA
:1000E000510C0008A9110008A91100080000000027
:1000F000000000000000000000000000A91100083E
:1001000000000000A9110008A9110008A9110008A9
:1001100000000000000000000000000000000000DF
:10012000A9110008A9110008A9110008A9110008C7
:10013000A9110008000000000000000000000000FD
:10014000000000000000000000000000A9110008ED
:10015000A9110008A9110008A9110008A911000897
:10016000A9110008A911000800000000000000000B
:10017000000000000000000000000000000000007F
:1001800000000000A91100080000000000000000AD
:04019000A9110008A9
:100194000348044B834202D0034B03B11847704712
:1001A4001000002010000020000000000548064B4D
:1001B4001B1AD90F01EBA301491002D0034B03B161
:1001C40018477047100000201000002000000000B5
:1001D40010B5064C237843B9FFF7DAFF044B13B18B
:1001E4000448AFF300800123237010BD10000020E9
:1001F40000000000F411000808B5054B1BB10549C7
:100204000548AFF30080BDE80840FFF7CFBF00BF4B
:100214000000000014000020F411000880B483B032
:1002240000AF0346FB7197F90730002B0BDBFB791A
:1002340003F01F02064997F907305B09012000FA11
:1002440002F241F8232000BF0C37BD4680BC704742
:1002540000E100E080B485B000AF0346FB710B46BB
:10026400BB7113467B71FB79413BFB737B79002B9C
:100274000AD12F4BDB68BA79012101FA02F2114647
:100284002B4A0B43D36024E07B79012B0AD1284B02
:100294009B68BA79012101FA02F21146244A0B4300
:1002A400936016E07B79022B13D1214BDB68BA797A
:1002B400012101FA02F211461D4A0B43D3601C4B83
:1002C4009B68BA79012101FA02F21146184A0B43DC
:1002D4009360BB799B08BB73BB7903F00303DBB268
:1002E4009B007B73134ABB7B023352F823207B7B36
:1002F4000F2101FA03F3DB4318460E49BB7B02408E
:10030400023341F823200B4ABB7B023352F82320EB
:10031400F97B7B7B01FA03F318460649BB7B024356
:10032400023341F8232000BF1437BD4680BC704718
:10033400003C01400038014080B582B000AF034664
:10034400FB71144B1B68FA79012101FA02F2114680
:10035400104A0B431360FB79092B06D9FB790F2B49
:1003640003D82820FFF75AFF0FE0FB79042B03D1B1
:100374000A20FFF753FF08E0FB79042B05D9FB792A
:10038400092B02D81720FFF749FF00BF0837BD46E5
:1003940080BD00BF003C014090B482B000AF044671
:1003A400084611461A462346FB710346BB710B46A9
:1003B4007B7113463B71BB790F2B00F29482FB795E
:1003C400413B032B00F2918201A252F823F000BFBB
:1003D400E50300081B05000881060008B7070008AC
:1003E4009A4B1B68BA795200032101FA02F2D243F4
:1003F4001146964A0B401360944B1B687979BA797D
:10040400520001FA02F21146904A0B4313607B79C1
:10041400002B17D18E4B1B68BA795200032101FAC5
:1004240002F2D24311468A4A0B401360884B1B6880
:100434003979BA79520001FA02F21146844A0B431F
:10044400136054E27B79012B2CD1824B1B68BA795F
:10045400012101FA02F2D24311467E4A0B40136095
:100464007C4B1B683979BA7901FA02F21146794A50
:100474000B431360784B1B68BA795200032101FACD
:1004840002F2D2431146744A0B401360724B1B684C
:10049400BA795200012101FA02F211466E4A0B4365
:1004A400136024E27B79022B40F02182BB79072B75
:1004B40017D86A4B1B68BA7992000F2101FA02F22D
:1004C400D2431146654A0B401360644B1B6839796B
:1004D400BA79920001FA02F21146604A0B431360A2
:1004E40005E25F4B1B68BA79083A92000F2101FAC2
:1004F40002F2D24311465A4A0B401360584B1B6810
:100504003979BA79083A920001FA02F21146544A4A
:100514000B431360EBE1534B1B68BA795200032180
:1005240001FA02F2D24311464E4A0B4013604D4B7E
:100534001B687979BA79520001FA02F21146494AE4
:100544000B4313607B79002B17D1474B1B68BA7997
:100554005200032101FA02F2D2431146424A0B40EF
:100564001360414B1B683979BA79520001FA02F2DF
:1005740011463D4A0B431360BBE17B79012B2CD11F
:100584003A4B1B68BA79012101FA02F2D2431146AF
:10059400364A0B401360354B1B683979BA7901FA36
:1005A40002F21146314A0B431360314B1B68BA798E
:1005B4005200032101FA02F2D24311462C4A0B40A5
:1005C40013602B4B1B68BA795200012101FA02F225
:1005D4001146274A0B4313608BE17B79022B40F0D1
:1005E4008881BB79072B17D8224B1B68BA799200F4
:1005F4000F2101FA02F2D24311461E4A0B40136046
:100604001C4B1B683979BA79920001FA02F211463F
:10061400184A0B4313606CE1174B1B68BA79083A0C
:1006240092000F2101FA02F2D2431146124A0B4002
:100634001360114B1B683979BA79083A920001FAB0
:1006440002F211460C4A0B43136052E100000240CF
:100654000C00024004000240080002402000024056
:1006640024000240000402400C040240040402403E
:10067400080402402004024024040240A14B1B68E9
:10068400BA795200032101FA02F2D24311469D4A7B
:100694000B4013609B4B1B687979BA79520001FABD
:1006A40002F21146974A0B4313607B79002B17D152
:1006B400954B1B68BA795200032101FA02F2D24326
:1006C4001146914A0B4013608F4B1B683979BA79F4
:1006D400520001FA02F211468B4A0B4313600AE1FD
:1006E4007B79012B2CD1894B1B68BA79012101FA42
:1006F40002F2D2431146854A0B401360834B1B68B8
:100704003979BA7901FA02F21146804A0B4313602F
:100714007F4B1B68BA795200032101FA02F2D243DB
:1007240011467B4A0B401360794B1B68BA7952001F
:10073400012101FA02F21146754A0B431360DAE013
:100744007B79022B40F0D780BB79072B17D8714BEC
:100754001B68BA7992000F2101FA02F2D2431146C2
:100764006C4A0B4013606B4B1B683979BA79920061
:1007740001FA02F21146674A0B431360BBE0664B71
:100784001B68BA79083A92000F2101FA02F2D243A7
:100794001146614A0B4013605F4B1B683979BA7983
:1007A400083A920001FA02F211465B4A0B431360C5
:1007B400A1E05A4B1B68BA795200032101FA02F2F4
:1007C400D2431146554A0B401360544B1B68797948
:1007D400BA79520001FA02F21146504A0B431360EF
:1007E4007B79002B17D14E4B1B68BA795200032139
:1007F40001FA02F2D2431146494A0B401360484BB6
:100804001B683979BA79520001FA02F21146444A56
:100814000B43136071E07B79012B2CD1414B1B6896
:10082400BA79012101FA02F2D24311463D4A0B4042
:1008340013603C4B1B683979BA7901FA02F211460C
:10084400384A0B431360384B1B68BA7952000321B2
:1008540001FA02F2D2431146334A0B401360324B81
:100864001B68BA795200012101FA02F211462E4A9C
:100874000B43136041E07B79022B3ED1BB79072BFC
:1008840017D82A4B1B68BA7992000F2101FA02F299
:10089400D2431146254A0B401360244B1B68397917
:1008A400BA79920001FA02F21146204A0B4313600E
:1008B40023E01F4B1B68BA79083A92000F2101FA12
:1008C40002F2D24311461A4A0B401360184B1B68BC
:1008D4003979BA79083A920001FA02F21146144AB7
:1008E4000B43136009E000BF08E000BF06E000BF4F
:1008F40004E000BF02E000BF00E000BF0837BD46CF
:1009040090BC7047000802400C08024004080240F2
:10091400080802402008024024080240000C02405B
:100924000C0C0240040C0240080C0240200C024053
:10093400240C024080B485B000AF0346FB710B4623
:10094400BB7113467B71BB790F2B01D9012396E050
:100954000023FB73FB79413B032B37D801A252F8E8
:1009640023F000BF790900088F090008A5090008D1
:10097400BB090008444B1A68BB795B0022FA03F3F5
:10098400DBB203F00303FB7322E0404B1A68BB792C
:100994005B0022FA03F3DBB203F00303FB7317E0FB
:1009A4003B4B1A68BB795B0022FA03F3DBB203F01A
:1009B4000303FB730CE0374B1A68BB795B0022FA24
:1009C40003F3DBB203F00303FB7301E0012356E0FE
:1009D400FB7B002B01D1012351E0FB79413B032B2D
:1009E4004AD801A252F823F0FD0900081D0A0008A4
:1009F4003D0A00085D0A00087B79012B05D1BB790B
:100A040001229A40244B1A6038E0BB79103301224A
:100A14009A40214B1A6031E07B79012B05D1BB79D7
:100A240001229A401D4B1A6028E0BB791033012241
:100A34009A401A4B1A6021E07B79012B05D1BB79CE
:100A440001229A40164B1A6018E0BB791033012238
:100A54009A40134B1A6011E07B79012B05D1BB79C5
:100A640001229A400F4B1A6008E0BB79103301222F
:100A74009A400C4B1A6001E0012300E00023184661
:100A84001437BD4680BC7047000002400004024099
:100A940000080240000C0240180002401804024002
:100AA40018080240180C024080B485B000AF034619
:100AB4000A46FB711346BB710023FB73BB790F2BF2
:100AC40001D900233AE0FB79413B032B32D801A240
:100AD40052F823F0E90A0008FD0A0008110B000887
:100AE400250B0008184B1A68BB7922FA03F3DBB212
:100AF40003F00103FB7320E0144B1A68BB7922FA5C
:100B040003F3DBB203F00103FB7316E0104B1A6826
:100B1400BB7922FA03F3DBB203F00103FB730CE0AD
:100B24000C4B1A68BB7922FA03F3DBB203F001031E
:100B3400FB7302E00023FB7300BFFB7B18461437F2
:100B4400BD4680BC704700BF100002401004024044
:100B540010080240100C024080B400AF044B1B6824
:100B6400034A43F00103136000BFBD4680BC7047D5
:100B74000038024080B485B000AF0346FB71FB79B6
:100B84005B09FB73FB7903F01F03BB73FB7B032B34
:100B940032D801A252F823F0AD0B0008C10B0008B3
:100BA400D50B0008E90B0008164B1A68BB7B012122
:100BB40001FA03F3134913430B601EE0124B1A6846
:100BC400BB7B012101FA03F30F4913430B6014E0CB
:100BD4000E4B1A68BB7B012101FA03F30B49134343
:100BE4000B600AE00A4B1A68BB7B012101FA03F38C
:100BF400074913430B6000E000BF00BF1437BD4634
:100C040080BC7047303802403438024040380240DB
:100C14004438024080B483B000AF0346FB7197F9B7
:100C24000730002B0BDBFB7903F01F02064997F911
:100C340007305B09012000FA02F241F8232000BFCB
:100C44000C37BD4680BC704700E100E080B400AFC3
:100C54002C4B5B6903F48053002B24D0294B5B6934
:100C6400284A43F48053536172B600BF264B1B8855
:100C74009BB240F2E632934207D8234B1B889BB2C7
:100C840001339AB2204B1A8002E01F4B00221A80D3
:100C94001E4B01221A701E4B01221A701D4B012299
:100CA4001A7062B600BF174B5B6903F40053002B44
:100CB40023D0144B5B69134A43F40053536172B657
:100CC40000BF114B1B889BB2002B07D00E4B1B8817
:100CD4009BB2013B9AB20C4B1A8003E00A4B40F2E0
:100CE400E7321A80094B02221A70094B01221A704A
:100CF400084B01221A7062B600BF00BFBD4680BC1B
:100D0400704700BF003C01402C0000202E00002052
:100D14002F0000203000002080B582B000AF184BB7
:100D24005B6903F01003002B26D0154B5B69144A52
:100D340043F01003536104214120FFF7B5FE03463D
:100D4400FB7172B600BFFB79012B08D1012203218C
:100D54004120FFF7EFFD0B4B03221A7007E000223E
:100D640003214120FFF7E6FD064B04221A70064BCF
:100D740001221A7062B600BF00BF0837BD4680BDAD
:100D8400003C01402E0000203000002080B500AF60
:100D940000F024F80F4B1B78DBB2002B08D000F0D6
:100DA400E9F872B600BF0B4B00221A7062B600BF9E
:100DB400094B1B78DBB2002B08D000F0E1F872B6C7
:100DC40000BF054B00221A7062B600BF00F088F81D
:100DD400E0E700BF2F0000203000002080B582B083
:100DE40000AFFFF7B9FE0020FFF7C4FE0120FFF7B4
:100DF400C1FE1120FFF7BEFE00237B600FE0374ADF
:100E04007B6812F81300354A7B685B0013445978F9
:100E140000230122FFF7C0FA7B6801337B607B6803
:100E2400062BECD90023012207214220FFF7B4FA54
:100E34000023012208214220FFF7AEFA00230122F9
:100E440009214220FFF7A8FA002301220A214220A7
:100E5400FFF7A2FA0023012203214120FFF79CFAA5
:100E6400012300220C214220FFF796FA01230022DD
:100E74000D214220FFF790FA012300220421412092
:100E8400FFF78AFA00220C214220FFF7E3F901223E
:100E94000D214220FFF7DEF9022204214120FFF751
:100EA400D9F90C20FFF748FA0D20FFF745FA042082
:100EB400FFF742FA2820FFF7ADFE0A20FFF7AAFE4B
:100EC40000F064F8002203214120FFF733FD62B6ED
:100ED40000BF00BF0837BD4680BD00BF0000002032
:100EE40080B582B000AF214B1B6801331F4A1360E9
:100EF4001E4B1B68032B34D91C4B00221A6000F0D4
:100F040045F81B4B1B78184600F088F80346FB7025
:100F1400FB78184600F0EAF800237B6002E07B6867
:100F240001337B607B68632BF9D9114B1B7818461E
:100F340000F044F800237B6002E07B6801337B60AF
:100F44007B68B3F57A7FF8D3094B1B7801335A4297
:100F540003F0030302F0030258BF5342DAB2044B16
:100F64001A7000BF0837BD4680BD00BF34000020A2
:100F74003100002080B400AF00BFBD4680BC704784
:100F840080B400AF00BFBD4680BC704780B500AFE1
:100F9400012207214220FFF7CDFC01220821422033
:100FA400FFF7C8FC012209214220FFF7C3FC0122FC
:100FB4000A214220FFF7BEFC00BF80BD80B582B08D
:100FC40000AF0346FB71FB79032B23D801A252F82F
:100FD40023F000BFE90F0008F50F00080110000816
:100FE4000D100008002207214220FFF7A3FC11E0A6
:100FF400002208214220FFF79DFC0BE0002209217A
:101004004220FFF797FC05E000220A214220FFF767
:1010140091FC00BF00BF0837BD4680BD80B485B0D9
:1010240000AF0346FB710023FB7372B600BF2B4B6A
:101034001B88BB812A4B1B78FB7262B600BFFB790D
:10104400032B44D801A252F823F000BF611000081A
:1010540085100008A9100008C3100008BB89214AA4
:10106400A2FB03235B099AB21F4BA3FB0213D9080B
:101074000B469B000B445B00D31A9BB2FB7326E028
:10108400BB89194AA2FB0323DB089AB2164BA3FBC4
:101094000213D9080B469B000B445B00D31A9BB286
:1010A400FB7314E0BA89104BA3FB0213D9080B4657
:1010B4009B000B445B00D31A9BB2FB7307E0FB7AE3
:1010C400FB73FB7B092B01D90923FB7300BFFB7B5B
:1010D40018461437BD4680BC704700BF2C00002062
:1010E4002E0000201F85EB51CDCCCCCC80B586B032
:1010F40000AF0346FB71FB79092B28D8164A07F188
:101104000C0307CA03C31A800023FB751BE0FB7D95
:10111400124A12F81300FB7D104A5B0013445978FD
:10112400FB7918333B4413F80C3C1A46FB7D42FA16
:1011340003F3DBB203F00103DBB21A46FFF7FAFB59
:10114400FB7D0133FB75FB7D062BE0D900E000BF7E
:101154001837BD4680BD00BF0C12000800000020F7
:1011640000200B490B4A0C4B02E01C580C50043075
:101174000C189442F9D300200849094A01E0086098
:1011840004319142FBD300F00FF8FFF7FFFD00009C
:101194000000002010000020201200081000002091
:1011A40038000020FEE7000070B50D4B0D4D5B1BB1
:1011B4009C100026A64209D100F01AF80A4D0B4BE8
:1011C4005B1B9C100026A64205D170BD55F8043B5C
:1011D40098470136EEE755F8043B98470136F2E7A5
:1011E4001812000818120008181200081C1200082F
:1011F400F8B500BFF8BC08BC9E467047F8B500BF00
:08120400F8BC08BC9E467047CF
:0C120C003F065B4F666D7D077F670000AA
:04121800FD010008CC
:04121C00D5010008F0
:1012200042004201420242034204420542060000DB
:040000050800116579
:00000001FF
